{
  "_format": "hh-sol-artifact-1",
  "contractName": "MinesGame",
  "sourceName": "contracts/MinesGame.sol",
  "abi": [
    {
      "inputs": [],
      "stateMutability": "nonpayable",
      "type": "constructor"
    },
    {
      "anonymous": false,
      "inputs": [
        {
          "indexed": true,
          "internalType": "address",
          "name": "player",
          "type": "address"
        }
      ],
      "name": "GameLost",
      "type": "event"
    },
    {
      "anonymous": false,
      "inputs": [
        {
          "indexed": true,
          "internalType": "address",
          "name": "player",
          "type": "address"
        },
        {
          "indexed": false,
          "internalType": "uint256",
          "name": "betAmount",
          "type": "uint256"
        },
        {
          "indexed": false,
          "internalType": "uint8",
          "name": "mineCount",
          "type": "uint8"
        }
      ],
      "name": "GameStarted",
      "type": "event"
    },
    {
      "anonymous": false,
      "inputs": [
        {
          "indexed": true,
          "internalType": "address",
          "name": "player",
          "type": "address"
        },
        {
          "indexed": false,
          "internalType": "uint256",
          "name": "winnings",
          "type": "uint256"
        }
      ],
      "name": "GameWon",
      "type": "event"
    },
    {
      "anonymous": false,
      "inputs": [
        {
          "indexed": true,
          "internalType": "address",
          "name": "player",
          "type": "address"
        },
        {
          "indexed": false,
          "internalType": "uint8",
          "name": "tileIndex",
          "type": "uint8"
        },
        {
          "indexed": false,
          "internalType": "bool",
          "name": "isMine",
          "type": "bool"
        }
      ],
      "name": "TileRevealed",
      "type": "event"
    },
    {
      "inputs": [],
      "name": "addHouseFunds",
      "outputs": [],
      "stateMutability": "payable",
      "type": "function"
    },
    {
      "inputs": [
        {
          "internalType": "uint256",
          "name": "betAmount",
          "type": "uint256"
        },
        {
          "internalType": "uint8",
          "name": "totalMines",
          "type": "uint8"
        },
        {
          "internalType": "uint8",
          "name": "revealedSafeTiles",
          "type": "uint8"
        }
      ],
      "name": "calculateWinnings",
      "outputs": [
        {
          "internalType": "uint256",
          "name": "",
          "type": "uint256"
        }
      ],
      "stateMutability": "pure",
      "type": "function"
    },
    {
      "inputs": [],
      "name": "cashOut",
      "outputs": [],
      "stateMutability": "nonpayable",
      "type": "function"
    },
    {
      "inputs": [
        {
          "internalType": "address",
          "name": "",
          "type": "address"
        }
      ],
      "name": "games",
      "outputs": [
        {
          "internalType": "address",
          "name": "player",
          "type": "address"
        },
        {
          "internalType": "uint256",
          "name": "betAmount",
          "type": "uint256"
        },
        {
          "internalType": "uint8",
          "name": "totalMines",
          "type": "uint8"
        },
        {
          "internalType": "uint8",
          "name": "revealedSafeTiles",
          "type": "uint8"
        },
        {
          "internalType": "bool",
          "name": "isActive",
          "type": "bool"
        }
      ],
      "stateMutability": "view",
      "type": "function"
    },
    {
      "inputs": [
        {
          "internalType": "address",
          "name": "player",
          "type": "address"
        }
      ],
      "name": "getGameStatus",
      "outputs": [
        {
          "components": [
            {
              "internalType": "address",
              "name": "player",
              "type": "address"
            },
            {
              "internalType": "uint256",
              "name": "betAmount",
              "type": "uint256"
            },
            {
              "internalType": "uint8",
              "name": "totalMines",
              "type": "uint8"
            },
            {
              "internalType": "uint8",
              "name": "revealedSafeTiles",
              "type": "uint8"
            },
            {
              "internalType": "bool[]",
              "name": "revealedTiles",
              "type": "bool[]"
            },
            {
              "internalType": "uint8[]",
              "name": "mineLocations",
              "type": "uint8[]"
            },
            {
              "internalType": "bool",
              "name": "isActive",
              "type": "bool"
            }
          ],
          "internalType": "struct MinesGame.Game",
          "name": "",
          "type": "tuple"
        }
      ],
      "stateMutability": "view",
      "type": "function"
    },
    {
      "inputs": [],
      "name": "getSharedPoolBalance",
      "outputs": [
        {
          "internalType": "uint256",
          "name": "",
          "type": "uint256"
        }
      ],
      "stateMutability": "view",
      "type": "function"
    },
    {
      "inputs": [
        {
          "internalType": "uint8",
          "name": "tileIndex",
          "type": "uint8"
        }
      ],
      "name": "revealTile",
      "outputs": [],
      "stateMutability": "nonpayable",
      "type": "function"
    },
    {
      "inputs": [],
      "name": "sharedPoolBalance",
      "outputs": [
        {
          "internalType": "uint256",
          "name": "",
          "type": "uint256"
        }
      ],
      "stateMutability": "view",
      "type": "function"
    },
    {
      "inputs": [
        {
          "internalType": "uint8",
          "name": "numberOfMines",
          "type": "uint8"
        }
      ],
      "name": "startGame",
      "outputs": [],
      "stateMutability": "payable",
      "type": "function"
    },
    {
      "inputs": [],
      "name": "withdrawHouseFunds",
      "outputs": [],
      "stateMutability": "nonpayable",
      "type": "function"
    }
  ],
  "bytecode": "0x608060405234801561001057600080fd5b50611e62806100206000396000f3fe6080604052600436106100915760003560e01c806379131a191161005957806379131a1914610169578063793cd71e146101aa578063a59b9eb2146101c1578063e484d6ac146101cb578063e6ab60791461020857610091565b8063168c698c1461009657806335371177146100c157806352def6db146100ea57806354e4437e146101155780636ce2abd714610152575b600080fd5b3480156100a257600080fd5b506100ab610224565b6040516100b891906112a9565b60405180910390f35b3480156100cd57600080fd5b506100e860048036038101906100e39190611302565b61022e565b005b3480156100f657600080fd5b506100ff610610565b60405161010c91906112a9565b60405180910390f35b34801561012157600080fd5b5061013c6004803603810190610137919061138d565b610616565b6040516101499190611603565b60405180910390f35b34801561015e57600080fd5b5061016761081e565b005b34801561017557600080fd5b50610190600480360381019061018b919061138d565b610871565b6040516101a1959493929190611652565b60405180910390f35b3480156101b657600080fd5b506101bf6108ee565b005b6101c9610b28565b005b3480156101d757600080fd5b506101f260048036038101906101ed91906116d1565b610b43565b6040516101ff91906112a9565b60405180910390f35b610222600480360381019061021d9190611302565b610c21565b005b6000600154905090565b60198160ff1610610274576040517f08c379a000000000000000000000000000000000000000000000000000000000815260040161026b90611781565b60405180910390fd5b6000803373ffffffffffffffffffffffffffffffffffffffff1673ffffffffffffffffffffffffffffffffffffffff16815260200190815260200160002060050160009054906101000a900460ff16610302576040517f08c379a00000000000000000000000000000000000000000000000000000000081526004016102f9906117ed565b60405180910390fd5b6000803373ffffffffffffffffffffffffffffffffffffffff1673ffffffffffffffffffffffffffffffffffffffff1681526020019081526020016000206003018160ff16815481106103585761035761180d565b5b90600052602060002090602091828204019190069054906101000a900460ff16156103b8576040517f08c379a00000000000000000000000000000000000000000000000000000000081526004016103af90611888565b60405180910390fd5b60008060003373ffffffffffffffffffffffffffffffffffffffff1673ffffffffffffffffffffffffffffffffffffffff16815260200190815260200160002090506001816003018360ff16815481106104155761041461180d565b5b90600052602060002090602091828204019190066101000a81548160ff0219169083151502179055506000805b8260020160009054906101000a900460ff1660ff168160ff1610156104c2578360ff16836004018260ff168154811061047e5761047d61180d565b5b90600052602060002090602091828204019190069054906101000a900460ff1660ff16036104af57600191506104c2565b80806104ba906118d7565b915050610442565b50801561057f5760008260050160006101000a81548160ff0219169083151502179055503373ffffffffffffffffffffffffffffffffffffffff167f10584ac5eb9dd23ee43e44bbd9c9497b456922afb4e45d02925d3b39fa075beb84600160405161052f929190611900565b60405180910390a23373ffffffffffffffffffffffffffffffffffffffff167fe52eca3d39fb231ad76fbb2384560be97f13bf0d9b9739a6d31c93acd38c4d9460405160405180910390a261060b565b81600201600181819054906101000a900460ff16809291906105a0906118d7565b91906101000a81548160ff021916908360ff160217905550503373ffffffffffffffffffffffffffffffffffffffff167f10584ac5eb9dd23ee43e44bbd9c9497b456922afb4e45d02925d3b39fa075beb846000604051610602929190611900565b60405180910390a25b505050565b60015481565b61061e6110cb565b6000808373ffffffffffffffffffffffffffffffffffffffff1673ffffffffffffffffffffffffffffffffffffffff1681526020019081526020016000206040518060e00160405290816000820160009054906101000a900473ffffffffffffffffffffffffffffffffffffffff1673ffffffffffffffffffffffffffffffffffffffff1673ffffffffffffffffffffffffffffffffffffffff168152602001600182015481526020016002820160009054906101000a900460ff1660ff1660ff1681526020016002820160019054906101000a900460ff1660ff1660ff1681526020016003820180548060200260200160405190810160405280929190818152602001828054801561077557602002820191906000526020600020906000905b82829054906101000a900460ff1615158152602001906001019060208260000104928301926001038202915080841161073f5790505b50505050508152602001600482018054806020026020016040519081016040528092919081815260200182805480156107f357602002820191906000526020600020906000905b82829054906101000a900460ff1660ff16815260200190600101906020826000010492830192600103820291508084116107bc5790505b505050505081526020016005820160009054906101000a900460ff1615151515815250509050919050565b3373ffffffffffffffffffffffffffffffffffffffff166108fc6001549081150290604051600060405180830381858888f19350505050158015610866573d6000803e3d6000fd5b506000600181905550565b60006020528060005260406000206000915090508060000160009054906101000a900473ffffffffffffffffffffffffffffffffffffffff16908060010154908060020160009054906101000a900460ff16908060020160019054906101000a900460ff16908060050160009054906101000a900460ff16905085565b60008060003373ffffffffffffffffffffffffffffffffffffffff1673ffffffffffffffffffffffffffffffffffffffff16815260200190815260200160002090508060050160009054906101000a900460ff16610981576040517f08c379a0000000000000000000000000000000000000000000000000000000008152600401610978906117ed565b60405180910390fd5b60008160020160019054906101000a900460ff1660ff16116109d8576040517f08c379a00000000000000000000000000000000000000000000000000000000081526004016109cf9061199b565b60405180910390fd5b6000610a0b82600101548360020160009054906101000a900460ff168460020160019054906101000a900460ff16610b43565b9050600154826001015482610a2091906119bb565b1115610a3b578160010154600154610a3891906119ef565b90505b60008260050160006101000a81548160ff021916908315150217905550808260010154610a6891906119bb565b60016000828254610a7991906119ef565b925050819055503373ffffffffffffffffffffffffffffffffffffffff166108fc828460010154610aaa91906119bb565b9081150290604051600060405180830381858888f19350505050158015610ad5573d6000803e3d6000fd5b503373ffffffffffffffffffffffffffffffffffffffff167fdae072d96ce4f8bfc6557d4e8c29e0d1875b50c4efe52b340ab49669ec42ebe682604051610b1c91906112a9565b60405180910390a25050565b3460016000828254610b3a91906119bb565b92505081905550565b6000808260ff1603610b585760009050610c1a565b6000606490506000600a85610b6d9190611a23565b60ff16905060008183610b8091906119bb565b905060005b8560ff168160ff161015610bdb576064600288610ba29190611a23565b6064610bae9190611a60565b60ff1683610bbc9190611a95565b610bc69190611b06565b91508080610bd3906118d7565b915050610b85565b50600060648289610bec9190611a95565b610bf69190611b06565b9050878111610c06576000610c13565b8781610c1291906119ef565b5b9450505050505b9392505050565b60003411610c64576040517f08c379a0000000000000000000000000000000000000000000000000000000008152600401610c5b90611ba9565b60405180910390fd5b60018160ff1610158015610c7c575060188160ff1611155b610cbb576040517f08c379a0000000000000000000000000000000000000000000000000000000008152600401610cb290611c15565b60405180910390fd5b6000803373ffffffffffffffffffffffffffffffffffffffff1673ffffffffffffffffffffffffffffffffffffffff16815260200190815260200160002060050160009054906101000a900460ff1615610d4a576040517f08c379a0000000000000000000000000000000000000000000000000000000008152600401610d4190611ca7565b60405180910390fd5b60008160ff1667ffffffffffffffff811115610d6957610d68611cc7565b5b604051908082528060200260200182016040528015610d975781602001602082028036833780820191505090505b5090506000601967ffffffffffffffff811115610db757610db6611cc7565b5b604051908082528060200260200182016040528015610de55781602001602082028036833780820191505090505b50905060005b8360ff168160ff161015610edb576000805b600190506019423385604051602001610e1893929190611d95565b6040516020818303038152906040528051906020012060001c610e3b9190611dd2565b915060005b8360ff168160ff161015610e94578260ff16868260ff1681518110610e6857610e6761180d565b5b602002602001015160ff1603610e815760009150610e94565b8080610e8c906118d7565b915050610e40565b508015610dfd5781858460ff1681518110610eb257610eb161180d565b5b602002602001019060ff16908160ff168152505050508080610ed3906118d7565b915050610deb565b506040518060e001604052803373ffffffffffffffffffffffffffffffffffffffff1681526020013481526020018460ff168152602001600060ff168152602001828152602001838152602001600115158152506000803373ffffffffffffffffffffffffffffffffffffffff1673ffffffffffffffffffffffffffffffffffffffff16815260200190815260200160002060008201518160000160006101000a81548173ffffffffffffffffffffffffffffffffffffffff021916908373ffffffffffffffffffffffffffffffffffffffff1602179055506020820151816001015560408201518160020160006101000a81548160ff021916908360ff16021790555060608201518160020160016101000a81548160ff021916908360ff160217905550608082015181600301908051906020019061101c929190611126565b5060a08201518160040190805190602001906110399291906111cc565b5060c08201518160050160006101000a81548160ff021916908315150217905550905050346001600082825461106f91906119bb565b925050819055503373ffffffffffffffffffffffffffffffffffffffff167faa236a91feb102276268750c1e3a04087ba228f0e931a62b6a28674de93151b434856040516110be929190611e03565b60405180910390a2505050565b6040518060e00160405280600073ffffffffffffffffffffffffffffffffffffffff16815260200160008152602001600060ff168152602001600060ff16815260200160608152602001606081526020016000151581525090565b82805482825590600052602060002090601f016020900481019282156111bb5791602002820160005b8382111561118c57835183826101000a81548160ff021916908315150217905550926020019260010160208160000104928301926001030261114f565b80156111b95782816101000a81549060ff021916905560010160208160000104928301926001030261118c565b505b5090506111c89190611273565b5090565b82805482825590600052602060002090601f016020900481019282156112625791602002820160005b8382111561123357835183826101000a81548160ff021916908360ff16021790555092602001926001016020816000010492830192600103026111f5565b80156112605782816101000a81549060ff0219169055600101602081600001049283019260010302611233565b505b50905061126f9190611273565b5090565b5b8082111561128c576000816000905550600101611274565b5090565b6000819050919050565b6112a381611290565b82525050565b60006020820190506112be600083018461129a565b92915050565b600080fd5b600060ff82169050919050565b6112df816112c9565b81146112ea57600080fd5b50565b6000813590506112fc816112d6565b92915050565b600060208284031215611318576113176112c4565b5b6000611326848285016112ed565b91505092915050565b600073ffffffffffffffffffffffffffffffffffffffff82169050919050565b600061135a8261132f565b9050919050565b61136a8161134f565b811461137557600080fd5b50565b60008135905061138781611361565b92915050565b6000602082840312156113a3576113a26112c4565b5b60006113b184828501611378565b91505092915050565b6113c38161134f565b82525050565b6113d281611290565b82525050565b6113e1816112c9565b82525050565b600081519050919050565b600082825260208201905092915050565b6000819050602082019050919050565b60008115159050919050565b61142881611413565b82525050565b600061143a838361141f565b60208301905092915050565b6000602082019050919050565b600061145e826113e7565b61146881856113f2565b935061147383611403565b8060005b838110156114a457815161148b888261142e565b975061149683611446565b925050600181019050611477565b5085935050505092915050565b600081519050919050565b600082825260208201905092915050565b6000819050602082019050919050565b60006114e983836113d8565b60208301905092915050565b6000602082019050919050565b600061150d826114b1565b61151781856114bc565b9350611522836114cd565b8060005b8381101561155357815161153a88826114dd565b9750611545836114f5565b925050600181019050611526565b5085935050505092915050565b600060e08301600083015161157860008601826113ba565b50602083015161158b60208601826113c9565b50604083015161159e60408601826113d8565b5060608301516115b160608601826113d8565b50608083015184820360808601526115c98282611453565b91505060a083015184820360a08601526115e38282611502565b91505060c08301516115f860c086018261141f565b508091505092915050565b6000602082019050818103600083015261161d8184611560565b905092915050565b61162e8161134f565b82525050565b61163d816112c9565b82525050565b61164c81611413565b82525050565b600060a0820190506116676000830188611625565b611674602083018761129a565b6116816040830186611634565b61168e6060830185611634565b61169b6080830184611643565b9695505050505050565b6116ae81611290565b81146116b957600080fd5b50565b6000813590506116cb816116a5565b92915050565b6000806000606084860312156116ea576116e96112c4565b5b60006116f8868287016116bc565b9350506020611709868287016112ed565b925050604061171a868287016112ed565b9150509250925092565b600082825260208201905092915050565b7f496e76616c69642074696c6520696e6465780000000000000000000000000000600082015250565b600061176b601283611724565b915061177682611735565b602082019050919050565b6000602082019050818103600083015261179a8161175e565b9050919050565b7f4e6f206163746976652067616d65000000000000000000000000000000000000600082015250565b60006117d7600e83611724565b91506117e2826117a1565b602082019050919050565b60006020820190508181036000830152611806816117ca565b9050919050565b7f4e487b7100000000000000000000000000000000000000000000000000000000600052603260045260246000fd5b7f54696c6520616c72656164792072657665616c65640000000000000000000000600082015250565b6000611872601583611724565b915061187d8261183c565b602082019050919050565b600060208201905081810360008301526118a181611865565b9050919050565b7f4e487b7100000000000000000000000000000000000000000000000000000000600052601160045260246000fd5b60006118e2826112c9565b915060ff82036118f5576118f46118a8565b5b600182019050919050565b60006040820190506119156000830185611634565b6119226020830184611643565b9392505050565b7f4d7573742072657665616c206174206c65617374206f6e65207361666520746960008201527f6c65000000000000000000000000000000000000000000000000000000000000602082015250565b6000611985602283611724565b915061199082611929565b604082019050919050565b600060208201905081810360008301526119b481611978565b9050919050565b60006119c682611290565b91506119d183611290565b92508282019050808211156119e9576119e86118a8565b5b92915050565b60006119fa82611290565b9150611a0583611290565b9250828203905081811115611a1d57611a1c6118a8565b5b92915050565b6000611a2e826112c9565b9150611a39836112c9565b9250828202611a47816112c9565b9150808214611a5957611a586118a8565b5b5092915050565b6000611a6b826112c9565b9150611a76836112c9565b9250828201905060ff811115611a8f57611a8e6118a8565b5b92915050565b6000611aa082611290565b9150611aab83611290565b9250828202611ab981611290565b91508282048414831517611ad057611acf6118a8565b5b5092915050565b7f4e487b7100000000000000000000000000000000000000000000000000000000600052601260045260246000fd5b6000611b1182611290565b9150611b1c83611290565b925082611b2c57611b2b611ad7565b5b828204905092915050565b7f42657420616d6f756e74206d7573742062652067726561746572207468616e2060008201527f3000000000000000000000000000000000000000000000000000000000000000602082015250565b6000611b93602183611724565b9150611b9e82611b37565b604082019050919050565b60006020820190508181036000830152611bc281611b86565b9050919050565b7f4d696e6573206d757374206265206265747765656e203120616e642032340000600082015250565b6000611bff601e83611724565b9150611c0a82611bc9565b602082019050919050565b60006020820190508181036000830152611c2e81611bf2565b9050919050565b7f506c6179657220616c72656164792068617320616e206163746976652067616d60008201527f6500000000000000000000000000000000000000000000000000000000000000602082015250565b6000611c91602183611724565b9150611c9c82611c35565b604082019050919050565b60006020820190508181036000830152611cc081611c84565b9050919050565b7f4e487b7100000000000000000000000000000000000000000000000000000000600052604160045260246000fd5b6000819050919050565b611d11611d0c82611290565b611cf6565b82525050565b60008160601b9050919050565b6000611d2f82611d17565b9050919050565b6000611d4182611d24565b9050919050565b611d59611d548261134f565b611d36565b82525050565b60008160f81b9050919050565b6000611d7782611d5f565b9050919050565b611d8f611d8a826112c9565b611d6c565b82525050565b6000611da18286611d00565b602082019150611db18285611d48565b601482019150611dc18284611d7e565b600182019150819050949350505050565b6000611ddd82611290565b9150611de883611290565b925082611df857611df7611ad7565b5b828206905092915050565b6000604082019050611e18600083018561129a565b611e256020830184611634565b939250505056fea2646970667358221220cb96ad4cbad86376f4dfba2bd66a817fc8f576f5c9580dad79ef94cd163a34a764736f6c63430008130033",
  "linkReferences": {},
  "deployedLinkReferences": {}
}